:10000000C3C02EC2DCC0DBC0DAC0D9C0D8C0D7C0E4
:10001000D6C0D5C0D4C0D3C0D2C0D1C0D0C0CFC04C
:10002000CEC0CDC0CCC0090222000101008032093F
:100030000400000103000000092101010001229ACF
:10004000000705810308000A1201100100000008E2
:10005000C016DF05010101020001260356002D0034
:1000600055005300420020004D0061006D00650006
:100070002000500061006E0065006C002000380018
:10008000460376007500730062002E007700690059
:100090006B00690064006F0074002E0063006F0045
:1000A0006D002F00700072006F006A006500630031
:1000B00074003A006D0061006D0065007000610021
:1000C0006E0065006C000403090491717092515236
:1000D000504F28292B1300224E40904BA7A8A9AAC5
:1000E000A3A2A0A1A4A5A61E0022AFB0ADAE05019B
:1000F0000906A1018501050719E029E71500250179
:100100007501950881029506750825651900296510
:100110008100C0050C0901A1018502150025010916
:10012000E909EA75019502810209E29501810695C6
:10013000058103C005010905A1010901A10085038D
:100140000930093115FF250175049502810215005A
:10015000750195080509190129088102C0C005012A
:100160000905A1010901A10085040930093115FF24
:100170002501750495028102150075019508050990
:10018000190129088102C0C011241FBECFE5D4E0A7
:10019000DEBFCDBF10E0A0E6B0E0ECEEFBE002C0B9
:1001A00005900D92A436B107D9F720E0A4E6B0E09F
:1001B00001C01D92AC3BB207E1F7CED415C520CFEC
:1001C000CF93C62F2091890024FF07C020918A0079
:1001D00038E8232720938A0003C02AE5209389006A
:1001E000DC01EBE8F0E09C2F9E0F8D918193892F2D
:1001F0008E1B1816D4F36C2F8BE890E02DD1CC5FBA
:10020000C0938900CF910895CF93DF9380919A0096
:10021000835087FDA8C090919700209196002D32C1
:1002200009F09FC0883009F09CC0CCE0D0E0C91B29
:10023000D109C256DF4F83EC80937E008AE580931C
:100240006100109264008881807619F0CE0163D439
:100250007FC09A81109287008981811106C0109217
:10026000880027E830E082E06FC0853019F4909371
:100270009B0067C0863009F04EC08B81813041F40D
:1002800088E490E0909399008093980082E13FC0C9
:10029000823041F486E290E0909399008093980038
:1002A00082E235C08330F1F4911108C086EC90E011
:1002B000909399008093980084E029C0913041F494
:1002C00080E890E0909399008093980086E41FC0A6
:1002D0009230E1F48AE590E0909399008093980041
:1002E00086E215C0813241F488E390E09093990052
:1002F0008093980089E00BC0823241F48EEE90E04A
:1003000090939900809398008AE901C080E090E47E
:10031000909364001DC0883069F0893019F490937F
:100320009D000FC08A3049F08B3059F48BE48093E4
:100330008A0007C02DE930E002C027E830E081E004
:1003400003C027E830E080E03093990020939800C4
:100350009F81911104C09E81981708F4892F809382
:10036000600010929A008091610084FF46C08091E5
:1003700060008F3F09F441C0C82F893008F0C8E001
:100380008C1B8093600080917E0098E88927809381
:100390007E00CC2331F1209198003091990080911A
:1003A000640086FF0BC0AFE7B0E0F9018C2F8A0F25
:1003B00094919D9331968A13FBCF09C0D901EFE741
:1003C000F0E08C2F8E0F9D9191938E13FCCF8FEFC9
:1003D0008C0F90E00196820F931F90939900809369
:1003E00098006C2F8FE790E037D0CC5FCC3019F0BD
:1003F0008FEF80936000C093610084E190B39570AB
:1004000031F48150D9F710929B0010929500DF9142
:10041000CF91089585B7836085BF8BB780648BBF0C
:100420008BE480938A008AE5809389000895A82F41
:10043000B92F80E090E041E050EA609530E009C0DB
:100440002D9182279795879510F084279527305E08
:10045000C8F36F5FA8F30895EADF8D939D93089525
:10046000CF93CFB7CF93C395809BE9F7809B09C00B
:10047000809B07C0809B05C0809B03C0809B01C000
:10048000A3C0DF93C0919700DD27C256DF4F809B4A
:1004900002C0DF91EBCF2F930F931F9300B32FEF89
:1004A00000FB20F94F933F9310B34FEF012700FB60
:1004B00021F93BE031C04E7F012F10B3216028C0ED
:1004C000102F4D7F2260000000B329C04B7F2460B5
:1004D000012F000010B32BC010B3477F28602AC043
:1004E0004F7E00B320612CC04F7D10B320622FC01F
:1004F0004F7B00B3206432C0422700B349934FEFD3
:100500000000102710FB20F910B31570C9F1297FE6
:1005100091F2012700FB21F900B3237F89F23150CA
:1005200058F1102710FB22F910B3277E79F201272A
:1005300000FB23F92F7C81F200B3102710FB24F974
:100540002F7971F200C010B3012700FB25F92F733A
:1005500059F200C000B3102710FB26F9223040F2F8
:1005600000C010B3012700FB27F9243028F64F778D
:10057000206810B30000F9CF10E41ABF002719C09B
:100580003B503195C31BD04010E41ABF0881033C97
:10059000F9F00B34E9F0209195001981110F121335
:1005A000EDCF4A81441F093641F10D3211F0013E71
:1005B00029F700939C003F914F911F910F912F912C
:1005C000DF91CAB7C6FD4FCFCF91CFBFCF9118955E
:1005D00020919C00222379F310919A00112369F550
:1005E00034306AF130939A0020939600109197006E
:1005F0003BE0311B3093970022C000919A000130FC
:10060000E4F40AE54F7049F43091610034FD19C0FB
:1006100000936100CEE7D0E018C03091890034FD2E
:1006200010C000938900CAE8D0E00FC02795A8F455
:100630005150A9F4220F0000F9CF4AE503C042ED62
:1006400001C0432FC4E1D0E032E011B31560909AAD
:1006500011BB02B320E415E05F93012756E002BB13
:10066000279520F4515021F4220FF9CF012756E0AD
:1006700000003B5A02BBD0F2279528F4515029F4D0
:10068000220F0000F9CF012756E0279502BB20F486
:10069000515021F4220FF9CF012756E0299133233D
:1006A00002BB21F60A7F10919B00110FC651D0406A
:1006B00002BB11F01093950010E41ABF016011B352
:1006C0001A7F402F4A7F5F9100C000C002BB11BB60
:1006D00042BB71CF90916A00911113C208C2FADF38
:1006E00090E7980F933020F481E08093670008959D
:1006F0009CEF980F943848F090E6980F9C3048F0A3
:100700008C5A8C3060F4E1E005C081E08093680091
:100710000895E0E0F0E0EB59FF4F81E08083089519
:10072000823168F5E82FF0E0E559FF4F2081322F44
:1007300030782F77662361F0263008F5253011F4E4
:10074000332311F090E002C030E891E02F5F0CC03D
:100750002223A9F0213031F491E0311101C090E061
:1007600030E001C090E02150232B2083992339F001
:100770008C3021F481E0809369000895B0CF089512
:1007800010926500109266008FEF88BB17BA85BB88
:1007900014BA8AEF82BB11BA08950F931F93CF93B7
:1007A000DF9380916900813039F0909169008091E8
:1007B0006500923051F51AC082E080936900CBE663
:1007C000D0E010E01C3069F08881882351F0812F3F
:1007D0008ED1082F812F95D1081719F0812F7FDF37
:1007E00018821F5F2196123169F7DFCF9091670061
:1007F00091110BC090916800911107C0811105C043
:1008000080916600882389F102C0811104C0809123
:1008100066008823C1F0809162008250823008F027
:1008200080E0282F30E0F901EB59FF4F90819111C2
:1008300024C080958170282F30E0F901EB59FF4FDB
:10084000908191111AC080916800882321F0109244
:10085000680081E019C080916700882321F0109220
:10086000670082E011C080E00FC0109269008091A3
:100870007700807880936A00CACF8D5F8093620092
:10088000F901EB59FF4F1082DF91CF911F910F912A
:1008900008951F93CF93DF9380916900811135C034
:1008A00016B3D1E0C0E061E08D2F812309F060E054
:1008B0008C2F36DFDD0FCF5FC630A9F713B386E08C
:1008C000C1E0D1E0D80F61E09C2F912309F060E0F6
:1008D00027DFCC0FDC3011F08D2FF3CFD0B3D1FB5D
:1008E000662760F981E068278CE01ADF8DE0C8E0B8
:1008F00011E0180F61E09C2F9D2309F060E010DFEC
:10090000CC0F123111F0812FF3CFDF91CF911F91D6
:100910000895AF92BF92CF92DF92EF92FF920F9322
:100920001F93CF93DF9300D0CDB7DEB7823009F4A9
:1009300079C0A0F4813009F0CCC08093B40010924B
:10094000B5002BE6A22E20E0B22E92E0F12C3DE382
:10095000E32E40E4D42E01E010E021C0873008F0FF
:10096000B8C08093B40083509CE0899FD02C1124A0
:100970008BE6A82E80E0B82E90E040E0E12CF12C30
:1009800001E010E073C08F2D9A83A4DE2CEF280FB6
:100990009A81243850F0F394F2E1FF16C1F1F50189
:1009A00081915F0187FFF7CFEECF20E8280F283035
:1009B00060F4822F980101C0220F8A95EAF7809196
:1009C000B500822B8093B500E6CF983020F7292F11
:1009D00030E0803761F08137A1F48091B50082600A
:1009E0008093B500F901EC54FF4FD0820EC0809186
:1009F000B50084608093B500F901EC54FF4FE082AC
:100A000004C0F901EC54FF4F80839F5FC4CF98303E
:100A100038F4E92FF0E0EC54FF4F10829F5FF7CFDE
:100A200088E058C09BE6C92E90E0D92EE12CF12C2D
:100A300001E010E0F60181916F0187FF0DC08F2D5D
:100A400049DE90E7980F933038F49801092E01C0E1
:100A5000220F0A94EAF7E22AF394F2E1FF12EACFB6
:100A600082E08093B400E092B50034C0F50181913A
:100A70005F0187FF23C08F2D49839A832BDE8D1959
:100A800049819A81823AA9F030F4803AB1F0813AF2
:100A9000A9F441E013C0833A71F08C3A78F42CE564
:100AA000280FB80102C0660F771F2A95E2F7E62AE1
:100AB00005C090EF03C090E101C04FE0F39472E1F4
:100AC000F712D4CF942B9093B500E092B60083E058
:100AD00001C080E00F900F90DF91CF911F910F9197
:100AE000FF90EF90DF90CF90BF90AF90089582314C
:100AF00030F4E82FF0E0E452FF4F8491089580E055
:100B00000895823130F4E82FF0E0E653FF4F8491EE
:100B1000089580E00895FC01808180768032D1F4D0
:100B20008181813041F484EB90E09093990080932F
:100B300098008281EECE823041F48DE790E0909370
:100B400099008093980081E008958A3019F4838198
:100B500080937D0080E00895CF93DF931F92CDB7FF
:100B6000DEB72FE088E190E00FB6F894A89581BD3C
:100B70000FBE21BD05DE4EDC889A80E0815041F039
:100B8000A895E7EBFBE03197F1F700C00000F6CF46
:100B90008898789400E0F12C11E0A895898334DBE3
:100BA00078DE8981811101C0F8DD08B600FE08C039
:100BB00018BF90917D00992319F0053030F0055051
:100BC000811106C0FF2049F301C0092FFF24F394CF
:100BD0009091890094FFE1CF9CDE682F84EB90E038
:0C0BE000EFDA80E0F12CD9CFF894FFCFC1
:040BEC00FF5A0300A9
:00000001FF
