:10000000C3C02FC2DCC0DBC0DAC0D9C0D8C0D7C0E3
:10001000D6C0D5C0D4C0D3C0D2C0D1C0D0C0CFC04C
:10002000CEC0CDC0CCC0090222000101008032093F
:100030000400000103000000092101010001229ACF
:10004000000705810308000A1201100100000008E2
:10005000C016DF05010101020001260356002D0034
:1000600055005300420020004D0061006D00650006
:100070002000500061006E0065006C002000380018
:10008000460376007500730062002E007700690059
:100090006B00690064006F0074002E0063006F0045
:1000A0006D002F00700072006F006A006500630031
:1000B00074003A006D0061006D0065007000610021
:1000C0006E0065006C000403090491717092282988
:1000D0002B4F5051521300224E40904BB0A9A8A76D
:1000E000A6A5A4A1A0A3A21E0022B2AAABB105019D
:1000F0000906A1018501050719E029E71500250179
:100100007501950881029506750825651900296510
:100110008100C0050C0901A1018502150025010916
:10012000E909EA75019502810209E29501810695C6
:10013000058103C005010905A1010901A10085038D
:100140000930093115FF250175049502810215005A
:10015000750195080509190129088102C0C005012A
:100160000905A1010901A10085040930093115FF24
:100170002501750495028102150075019508050990
:10018000190129088102C0C011241FBECFE5D4E0A7
:10019000DEBFCDBF10E0A0E6B0E0ECEEFBE002C0B9
:1001A00005900D92A436B107D9F710E0A4E6B0E0AF
:1001B00001C01D92AC3BB107E1F7CDD415C520CFEE
:1001C000CF93C62F2091890024FF07C030918A0069
:1001D00028E8232720938A0003C02AE5209389007A
:1001E000DC01EBE8F0E09C2F9E0F8D918193892F2D
:1001F0008E1B1816D4F36C2F8BE890E02ED1CC5FB9
:10020000C0938900CF910895CF93DF9380919A0096
:10021000835087FDA8C090919700209196002D32C1
:1002200009F09FC0883009F09CC0CCE0D0E0C91B29
:10023000D109C256DF4F83EC80937E008AE580931C
:100240006100109264008881807619F0CE0162D43A
:100250007FC09A81109287008981811106C0109217
:10026000880027E830E082E06FC0853019F4909371
:100270009B0067C0863009F04EC08B81813041F40D
:1002800088E490E0909399008093980082E13FC0C9
:10029000823041F486E290E0909399008093980038
:1002A00082E235C08330F1F4911108C086EC90E011
:1002B000909399008093980084E029C0913041F494
:1002C00080E890E0909399008093980086E41FC0A6
:1002D0009230E1F48AE590E0909399008093980041
:1002E00086E215C0813241F488E390E09093990052
:1002F0008093980089E00BC0823241F48EEE90E04A
:1003000090939900809398008AE901C080E090E47E
:10031000909364001DC0883069F0893019F490937F
:100320009D000FC08A3049F08B3059F48BE48093E4
:100330008A0007C02DE930E002C027E830E081E004
:1003400003C027E830E080E03093990020939800C4
:100350009F81911104C09E81981708F4892F809382
:10036000600010929A008091610084FF47C08091E4
:1003700060008F3F09F442C0C82F893008F0C8E000
:100380008C1B8093600090917E0088E88927809381
:100390007E00CC2339F180919800909199002091B2
:1003A000640026FF0BC0AFE7B0E0FC012C2F280F44
:1003B00034913D9331962E13FBCF09C0DC01EFE75A
:1003C000F0E02C2F2E0F3D9131932E13FCCF2FEF09
:1003D0002C0F30E02F5F3F4F820F931F90939900B7
:1003E000809398006C2F8FE790E037D0CC5FCC30B3
:1003F00019F08FEF80936000C093610084E190B3A7
:10040000957031F48150D9F710929B0010929500AD
:10041000DF91CF91089585B7836085BF8BB78064E6
:100420008BBFE9E8F0E08BE481838AE5808308955F
:10043000A82FB92F80E090E041E050EA609530E0CD
:1004400009C02D9182279795879510F084279527CD
:10045000305EC8F36F5FA8F30895EADF8D939D9334
:100460000895CF93CFB7CF93C395809BE9F7809B37
:1004700009C0809B07C0809B05C0809B03C0809BF8
:1004800001C0A3C0DF93C0919700DD27C256DF4FA4
:10049000809B02C0DF91EBCF2F930F931F9300B38C
:1004A0002FEF00FB20F94F933F9310B34FEF01273D
:1004B00000FB21F93BE031C04E7F012F10B32160DA
:1004C00028C0102F4D7F2260000000B329C04B7F51
:1004D0002460012F000010B32BC010B3477F2860A9
:1004E0002AC04F7E00B320612CC04F7D10B3206224
:1004F0002FC04F7B00B3206432C0422700B3499322
:100500004FEF0000102710FB20F910B31570C9F150
:10051000297F91F2012700FB21F900B3237F89F2A3
:10052000315058F1102710FB22F910B3277E79F2D1
:10053000012700FB23F92F7C81F200B3102710FB69
:1005400024F92F7971F200C010B3012700FB25F9BF
:100550002F7359F200C000B3102710FB26F9223088
:1005600040F200C010B3012700FB27F9243028F621
:100570004F77206810B30000F9CF10E41ABF0027AE
:1005800019C03B503195C31BD04010E41ABF0881FD
:10059000033CF9F00B34E9F0209195001981110F1B
:1005A0001213EDCF4A81441F093641F10D3211F08B
:1005B000013E29F700939C003F914F911F910F91AD
:1005C0002F91DF91CAB7C6FD4FCFCF91CFBFCF914B
:1005D000189520919C00222379F310919A00112301
:1005E00069F534306AF130939A00209396001091A7
:1005F00097003BE0311B3093970022C000919A0096
:100600000130E4F40AE54F7049F43091610034FDA3
:1006100019C000936100CEE7D0E018C03091890086
:1006200034FD10C000938900CAE8D0E00FC02795C0
:10063000A8F45150A9F4220F0000F9CF4AE503C0F5
:1006400042ED01C0432FC4E1D0E032E011B31560A8
:10065000909A11BB02B320E415E05F93012756E0A6
:1006600002BB279520F4515021F4220FF9CF012726
:1006700056E000003B5A02BBD0F2279528F45150B7
:1006800029F4220F0000F9CF012756E0279502BB7D
:1006900020F4515021F4220FF9CF012756E029917F
:1006A000332302BB21F60A7F10919B00110FC65124
:1006B000D04002BB11F01093950010E41ABF016006
:1006C00011B31A7F402F4A7F5F9100C000C002BB68
:1006D00011BB42BB71CF90916A00911111C206C249
:1006E000FADF90E7980F933020F481E08093670061
:1006F00008959CEF980F943848F090E6980F9C303E
:1007000048F08C5A8C3060F4E1E005C081E08093C1
:1007100068000895E0E0F0E0EB59FF4F81E080834E
:100720000895823168F5E82FF0E0E559FF4F908198
:10073000392F30789F77662361F0963008F5953031
:1007400029F4311103C030E821E001C020E09F5FAF
:100750000CC09923A9F0913031F421E0311101C08E
:1007600020E030E001C020E09150932B90832223C1
:1007700039F08C3021F481E0809369000895B0CF86
:100780000895E5E6F0E0108211828FEF88BB17BA7A
:1007900085BB14BA8AEF82BB11BA08950F931F93D9
:1007A000CF93DF9380916900813039F09091690097
:1007B00080916500923069F51DC082E080936900E8
:1007C0000BE610E0C0E0CC3079F0F801808188239E
:1007D00059F08C2F8BD1D82F8C2F92D1D81721F094
:1007E0008C2F7EDFF8011082CF5F0F5F1F4FC23169
:1007F00051F7DCCF9091670091110BC09091680088
:10080000911107C0811105C080916600882371F1A4
:1008100002C0811104C0809166008823B9F08091E4
:1008200062008250823090F5282F30E0F901EB59B8
:10083000FF4F9081911122C080958170282F30E068
:10084000F901EB59FF4F9081911118C08091680018
:10085000882321F01092680081E01AC0809167001F
:100860008823B1F01092670082E012C010926900F4
:1008700080917700807880936A00CDCF8D5F8093E0
:100880006200F901EB59FF4F108202C080E0CCCF2B
:10089000DF91CF911F910F9108951F93CF93DF9315
:1008A00080916900811133C016B3D1E0C0E061E0EE
:1008B0008D2F812309F060E08C2F33DFDD0FCF5FB8
:1008C000C630A9F713B386E0C1E0D1E0D80F61E0EC
:1008D0009C2F912309F060E024DFCC0F8D2FDC30BA
:1008E000A1F7D0B3D1FB662760F981E068278CE0DF
:1008F00018DF8DE0C8E011E0180F61E09C2F9D2308
:1009000009F060E00EDFCC0F812F1231A1F7DF91EB
:10091000CF911F910895AF92BF92CF92DF92EF9245
:10092000FF920F931F93CF93DF931F92CDB7DEB744
:10093000823009F47BC0A0F4813009F0CAC08093F2
:10094000B4001092B5004BE6E42E40E0F42E42E0F5
:10095000B12C5DE3D52E60E4C62E01E010E022C08C
:10096000873008F0B6C08093B40083509CE0899F24
:10097000B02C11248BE6E82E80E0F82E10E090E0F9
:10098000A12C00E0CC24C394D12C74C08B2D4983BE
:10099000A2DE9CEF980F4981943850F0B39432E175
:1009A000B316C9F1F70181917F0187FFF7CFEECF31
:1009B00090E8980F983068F4980102C0220F331F16
:1009C0009A95E2F7C9019091B500892B8093B50003
:1009D000E5CF483018F7242F30E0803761F08137B9
:1009E000A1F48091B50082608093B500F901EC54C8
:1009F000FF4FC0820EC08091B50084608093B50027
:100A0000F901EC54FF4FD08204C0F901EC54FF4FC0
:100A100080834F5FC3CF483038F4E42FF0E0EC54CC
:100A2000FF4F10824F5FF7CF88E054C00BE610E015
:100A3000C12CD12CEE24E394F12CF80181918F018B
:100A400087FF0EC08D2D47DE90E7980F933040F45E
:100A50009701092E02C0220F331F0A94E2F7C22A1F
:100A6000D39432E1D312E9CF82E08093B400C092F4
:100A7000B50030C0F70181917F0187FF20C0802F32
:100A8000998329DE8B199981823AB1F030F4803A4A
:100A900089F0813AA1F491E012C0833A79F08C3A5E
:100AA00070F4845A9601082E01C0220F0A94EAF7C6
:100AB000A22A05C09FE003C010EF01C010E10F5F44
:100AC0000231C1F6192B1093B500A092B60083E055
:100AD00001C080E00F90DF91CF911F910F91FF90A7
:100AE000EF90DF90CF90BF90AF900895823130F4B7
:100AF000E82FF0E0E452FF4F8491089580E00895DC
:100B0000823130F4E82FF0E0E653FF4F84910895EE
:100B100080E00895FC01808180768032D1F481816B
:100B2000813041F484EB90E0909399008093980099
:100B30008281F1CE823041F48DE790E0909399006C
:100B40008093980081E008958A3019F4838180931E
:100B50007D0080E00895CF93DF931F92CDB7DEB77D
:100B60002FE088E190E00FB6F894A89581BD0FBE04
:100B700021BD07DE50DC889A80E0815041F0A895C5
:100B8000E7EBFBE03197F1F700C00000F6CF889863
:100B90007894F12C00E011E0A895898335DB7DDEA7
:100BA0008981811101C0FADD08B600FE0AC018BFB4
:100BB00090917D00992329F0F4E0FF1538F42BEF94
:100BC000F20E811105C0002339F301C0F92E01E0B6
:100BD0009091890094FFE0CF9EDE682F84EB90E037
:0C0BE000EFDA80E000E0D8CFF894FFCFFF
:040BEC00FF5A0300A9
:00000001FF
